:020000040800F2
:10000000382A002001010008D1180008FD16000858
:10001000CD1800080F070008B31F000800000000FB
:10002000000000000000000000000000711A00083D
:100030001307000800000000591900085D1B0008A4
:100040001B0100081B0100081B0100081B01000820
:100050001B0100081B0100081B0100081B01000810
:100060001B0100081B0100081B0100081B01000800
:100070001B0100081B0100081B0100081B010008F0
:100080001B0100081B0100081B0100081B010008E0
:100090001B0100081B0100081B0100081B010008D0
:1000A0001B0100081B0100081B0100081B010008C0
:1000B0001B010008C11B00081B0100081B010008F0
:1000C0001B0100081B0100081B0100081B010008A0
:1000D0001B010008E91D00081B0100081B010008A6
:1000E0001B0100081B0100081B010008DFF80CD0F1
:1000F00000F050FA00480047B9280008382A0020CC
:100100000648804706480047FEE7FEE7FEE7FEE7B1
:10011000FEE7FEE7FEE7FEE7FEE7FEE7611B0008FD
:10012000ED00000840EA01039B0703D009E008C97D
:10013000121F08C0042AFAD203E011F8013B00F8AC
:10014000013B521EF9D27047D2B201E000F8012BF8
:10015000491EFBD270470022F6E710B513460A4647
:1001600004461946FFF7F0FF204610BD421C10F868
:10017000011B0029FBD1801A704710B5002200E056
:10018000521C835C8C5CA34201D1002BF8D1D8B205
:10019000E1B2401A10BD30B50B46014600202022C6
:1001A000012409E021FA02F59D4205D303FA02F584
:1001B000491B04FA02F52844151EA2F10102F1DCE4
:1001C00030BD2DE9F05F0546002092469B468846EB
:1001D0000646814640241BE02846414647462246C3
:1001E00000F0F9F953465A46C01A914110D311460E
:1001F0001846224600F0E0F92D1A67EB01084F4639
:1002000022460120002100F0D7F917EB00094E41EA
:10021000201EA4F10104DFDC484631462A4643464D
:10022000BDE8F09F2DE9FE4F804681EA0300C00F34
:100230000C46009021F0004123F00045B8EB02008D
:10024000A94105D24046214690461C460B4602462F
:1002500023F00040104347D0270DC7F30A00C3F333
:100260000A510290401A019040286BDAC3F3130040
:1002700040F4801B0098924620B10023D2EB030A81
:1002800063EB0B0B01985946C0F14002504600F059
:1002900093F906460D4650465946019A00F0ABF9CF
:1002A00010EB08006141002487EA115284EAE773E9
:1002B0001A4340D0009A62B3019A012A4FEA0752CA
:1002C00015DC001B61EB02014FF0004202EA07520D
:1002D000CDE90042001C41F5801132462B4600F06A
:1002E000ABF903B0BDE8F08F40462146F9E7001BAB
:1002F00061EB0201001C41F5801300185B412018DE
:10030000A2F5001747EB030140EAD570B6196D411D
:1003100011E06D084FEA360645EAC0754FEA07520C
:10032000001B61EB0201001C41F5801149084FEAF6
:1003300030000019514132462B4603B0BDE8F04F62
:1003400000F06BB90098012240000023D0EB0202BC
:1003500063EBE073009821464FEAE074B8EB0000CD
:1003600061EB0401E9E783F000435BE781F00041C2
:1003700058E72DE9FE4F81EA030404F0004421F020
:10038000004100944FF0000B23F0004350EA0104B9
:100390005ED052EA03045BD0C3F30A54C1F30A559A
:1003A0002C44A4F2F3340194A0FB0254C1F31301D2
:1003B00041F48011C3F3130343F4801301FB02449F
:1003C00000FB034E840A970A44EA815447EA8357A4
:1003D000A4FB076802958D0A05FB07854FEA932C5D
:1003E00004FB0C542705029D4FEA065847EA1637CE
:1003F000B5EB08056EEB070C870E920E47EA8117E6
:1004000042EA8312A7FB0201B6EB0B0164EB000486
:100410002B0D43EA0C335E1844EB1C50DA46514670
:10042000E7FB0201C5F313044FEA0B3343EA14530D
:100430004FEA0432019C43EA0603A4F10C0402943F
:10044000009CCDE900B400F0F7F803B0BDE8F08FF0
:1004500000200146F9E72DE9F04D81EA030404F09C
:10046000004B21F0004514464FF0000A23F00041F4
:1004700050EA050220D054EA01021DD0C5F30A5704
:100480000246C5F31303C1F31300C1F30A5640F447
:10049000801543F48013A7EB0608101BD64608F21C
:1004A000FD3873EB050002D308F1010801E0921852
:1004B0005B41B8F1000F03DA00200146BDE8F08D82
:1004C00000204FF48011064684460EE0171B73EBA4
:1004D000050705D3121B63EB050306434CEA010C29
:1004E00049084FEA300092185B4150EA0107EDD10C
:1004F00052EA030012D082EA040083EA05010843AD
:1005000005D0101BAB4106D20122002306E00022D9
:100510004FF0004302E06FF0010253101AEB0600A7
:100520004CEB085110EB0A0041EB0B01BDE8F04D1C
:1005300000F073B8C1F30A52C1F3130140F2FF3364
:1005400041F480119A4202DA00200146704740F2DD
:1005500033439A42A2F2334202DC524200F03BB8EB
:1005600000F02AB830B5041E71F1000404DB4FF02E
:100570000044404264EB0101141E73F1000405DBEA
:100580001C464FF00043524263EB0403994208BFFC
:10059000904230BD064C074D06E0E06840F0010394
:1005A00094E8070098471034AC42F6D3FFF7A2FD59
:1005B000702B0008902B0008202A04DB203A00FA58
:1005C00002F1002070479140C2F1200320FA03F3AA
:1005D000194390407047202A04DB203A21FA02F0A8
:1005E0000021704721FA02F3D040C2F1200291406D
:1005F000084319467047202A06DBCB17203A41FAF8
:1006000002F043EAE07306E041FA02F3D040C2F19F
:100610002002914008431946704710B5141E73F12B
:10062000000408DA401C41F1000192185B411A43B2
:1006300001D120F0010010BD2DE9F04D92469B46FE
:1006400011B1B1FA81F202E0B0FA80F220329046A4
:10065000FFF7B2FF04460F4640EA0A0041EA0B01E9
:1006600053465A46084313D0114653EA010019D0A5
:10067000C8F140025046FFF7AEFF05460E46504611
:1006800059464246FFF798FF084305D0012004E091
:1006900020463946BDE8F08D0020054346EAE07665
:1006A0002C4337430A986305E40AA0EB08000022B4
:1006B000FD0A44EA47540A3002D500200146E9E722
:1006C000010510196941DDE9084500196941BDE8D6
:1006D000F04DA2E730B58C1810F8012B12F00F0383
:1006E00001D110F8013B120906D110F8012B03E0EB
:1006F00010F8015B01F8015B5B1EF9D101E001F824
:10070000013B521EFBD1A142E6D3002030BD00BF09
:10071000FEE770472DE9F04105460E460027012D02
:1007200015D12548046D25A000F084FC0CE029A01B
:1007300000F080FC206800F07DFC28A000F07AFC2E
:10074000204600F0CBF80446002CF0D130E0022D1A
:100750002BD11948046D002719E071682068FFF754
:100760000CFD80B91EA000F065FC206800F062FC62
:100770001EA000F05FFC606800F05CFC17A000F0B9
:1007800059FC012705E0204600F0A8F80446002C9B
:10079000E3D100BF67B918A000F04CFC706800F00E
:1007A00049FC1AA000F046FC02E019A000F042FC4F
:1007B0000020BDE8F08100004400002053797374EC
:1007C000656D20616C6C20636F6D6D616E643A0DB8
:1007D0000A00000020202020000000000D0A000078
:1007E000636F6D6D616E643A000000000D0A202099
:1007F00075736167653A00004E6F7420666F756EA1
:100800006420636F6D6D616E64202200220D0A000A
:10081000546F6F206D616E79206172677321204F74
:100820006E6C7920737570706F7274206C65737361
:10083000207468656E203220617267730D0A0000B3
:1008400070B506460D4608A0296800F0D3FB0124C8
:1008500006E055F82420214607A000F0CBFB641CDD
:10086000B442F6DB002070BD636D6420202D3E2075
:1008700025730D0A000000006172672564202D3E7B
:100880002025730D0A00000070B505460024284697
:10089000FFF76CFC064600E0641C285D202803D1AD
:1008A000285D08B1B442F7D3281970BD70B505466C
:1008B00000260948046D0AE029462068FFF75DFC20
:1008C00008B9264605E0204600F008F80446002C4A
:1008D000F2D100BF304670BD44000020024602F154
:1008E0000C010448406D884201D908467047002039
:1008F000FCE700004400002010B5104810490865CE
:100900001048486500200864486481F84800C864BD
:100910000DA0886540210A48FFF71DFC802108488A
:100920005C30FFF718FC40210548DC30FFF713FC72
:100930004FF420710948FFF70EFC10BD902B000802
:1009400044000020A82B00085B47656E6572616C4F
:1009500020434C495D203E20000000006001002043
:1009600010B504460CB1FF2C00D110BD204600F09C
:10097000E9F900B9F9E7092C02D100F04DFA05E0D8
:100980007F2C01D0082C01D100F010F80D2C01D0E3
:100990000A2C02D100F00AF906E0202C04DB7E2CA0
:1009A00002DC204600F054F800BFDEE770B52548B1
:1009B000406C00B970BD2348406C401E214948641A
:1009C0000846006C401E08640846406C096C88426A
:1009D00008D100201B49096C1A4A50541AA000F093
:1009E00029FB2CE01748006C1649496C451A002475
:1009F0000AE01448406C2044401C1249085C496CD1
:100A00002144104A5054641CAC42F2DB00200D49D2
:100A1000096C0C4A5054082000F000FB0949496C4D
:100A2000084A881800F006FB08A000F003FB002429
:100A300003E0082000F0F2FA641CAC42F9DB00BFCE
:100A4000B8E700004400002008200800200800004B
:100A500070B506462448006C3F2800D970BD224876
:100A6000406C2149096C88420FD11F48416C406C91
:100A7000401C1D4A506410464654006C401C1146F0
:100A80000864304600F0CAFA2CE01748006C16499A
:100A9000496C451A2C460AE01348406C2044401E1D
:100AA0001149085C496C21440F4A5054641E002CC3
:100AB000F2DC304600F0B2FA0B48006C401C0A49E8
:100AC00008640846406C401C4864496C064A881813
:100AD00000F0B0FA002403E0082000F09FFA641C44
:100AE000AC42F9DB00BFB9E74400002070B52D48E7
:100AF000D0F89C0318B12B48D0F8A80300B970BDFA
:100B00002848D0F8A803401E2649C1F8A803084683
:100B1000006C496C441A002503E0202000F07EFAA6
:100B20006D1CA542F9D3002503E01FA000F082FA56
:100B30006D1C1C48006CA842F7D81A48D0F8A803CE
:100B400030B940221749DC311648FFF7EBFA1CE0B8
:100B50001448D0F8A403401C1249C1F8A403084665
:100B6000D0F8A4030A21B0FBF1F201FB12000D49F9
:100B7000C1F8A4030846D0F8A42300F58E7000EB5A
:100B8000821140220748FFF7CDFA0648FFF7EEFA38
:100B9000044908640846006C4864084600F04AFAB4
:100BA00000BFACE74400002008200800F0B585B085
:100BB00000254FA000F03EFA4E48006C00287DD082
:100BC0004C49D1F8A023D1F8A013491C494BC3F8D4
:100BD000A01303F58E7101EB821040221946FFF736
:100BE000A1FA4448D0F8A0030A21B0FBF1F201FBBE
:100BF00012004049C1F8A0030846D0F89C030A2817
:100C000005D20846D0F89C03401CC1F89C03002084
:100C10003849C1F8A403C1F8A80300243CE004E06B
:100C200000222046641C33490A543248005D2028C3
:100C300003D13048006CA042F2D82E48006CA0428C
:100C400000D82DE0052D12D32BA000F0F3F90027DA
:100C500007E05DF8270000F0EDF9202000F0DEF954
:100C60007F1CAF42F5DB30A000F0E4F918E021482A
:100C7000021929466D1C4DF8212000E0641C1D4816
:100C8000005D202803D01B48006CA042F6D819480C
:100C9000006CA04200D803E01648006CA042BED809
:100CA00000BF002D16DD0098FFF700FE064646B196
:100CB000B06818B169462846B26800E00AE090477B
:100CC00008E01AA000F0B6F9009800F0B3F91CA0F3
:100CD00000F0B0F90749886D00F0ACF940210548F3
:100CE000FFF739FA002003490864486405B0F0BDF5
:100CF0000D0A000044000020546F6F206D616E7972
:100D0000206172677321204C696E652077696C6C75
:100D1000207265706C61636520666F6C6C6F773AEA
:100D20000D0A20203C2000003E0D0A004E6F74206A
:100D3000666F756E6420636F6D6D616E6420220056
:100D4000220D0A0010B504461B2C05D101201D49B7
:100D500081F84800002010BD1A4890F8480001288A
:100D60000CD15B2C05D10220164981F848000020E7
:100D7000F1E70020134981F8480020E0114890F87D
:100D8000480002281BD100200E4981F84800412C60
:100D900003D100F0C7F80020DDE7422C03D1FFF7B4
:100DA000A5FE0020D7E7442C03D100F00DF8002069
:100DB000D1E7432C03D100F017F80020CBE74FF028
:100DC000FF30C8E74400002010B50648406C38B139
:100DD000082000F023F90348406C401E0149486494
:100DE00010BD00004400002010B50A48006C80B11E
:100DF0000848406C0749096C88420AD20549496C89
:100E0000044A505C00F00AF90248406C401C014959
:100E1000486410BD440000202DE9F047002600255D
:100E20003D4800F065F908B9BDE8F0873A48FFF79A
:100E30002BFD81463848046D24E04946206800F0C7
:100E400037F9D8B90DB9264617E0012D0FD133A0D7
:100E500000F0F0F8306800F0EDF830A000F0EAF8AB
:100E6000206800F0E7F82DA000F0E4F805E0206825
:100E700000F0E0F829A000F0DDF86D1C2046FFF737
:100E80002DFD0446002CD8D1012D32D12248006C12
:100E90002149496C471AA04604E0202000F0BEF822
:100EA00008F10108B845F8D34FF0000804E01CA091
:100EB00000F0C0F808F101081748006C4045F6D86A
:100EC00040211548FFF747F93068FFF74FF9804692
:100ED000424611483168FFF725F90F48FFF746F9F8
:100EE0000D4908640846006C4864084600F0A2F802
:100EF00010E0012D0ED90849886D00F09BF80648D6
:100F0000FFF734F9044908640846006C4864084651
:100F100000F090F800BF87E7440000200D0A0000B1
:100F20000820080070B53148D0F89C0300B970BDA6
:100F30002E48D0F8A80358B940222C4901F1DC0012
:100F4000FFF7F0F82948D0F8A0032849C1F8A40316
:100F50002648D0F8A8032549D1F89C13884242D2EC
:100F60002248D0F8A40320B909202049C1F8A403DD
:100F700006E01E48D0F8A403401E1C49C1F8A40393
:100F80001A48D0F8A803401C1849C1F8A80308461D
:100F9000006C496C441A002503E0202000F03EF864
:100FA0006D1CA542F9D3002503E011A000F042F822
:100FB0006D1C0E48006CA842F7D80C48D0F8A4234A
:100FC00000F58E7000EB821140220848FFF7AAF866
:100FD0000648FFF7CBF8054908640846006C4864EA
:100FE000084600F027F800BFA1E7000044000020F9
:100FF000082008000FB408B503A800900648009A1E
:10100000029900F0D9FF044800F014F80020009085
:1010100001B05DF814FB0000A000002010B50446EC
:101020000348C06C18B10248C16C2046884710BD07
:101030004400002070B505462C4605B970BD074830
:10104000C06C40B104E02078044AD16C8847641C2D
:1010500020780028F7D100BFF0E70000440000200E
:1010600008B10149C86470474400002010B1034929
:10107000886502E002A1014A9165704744000020A2
:101080005B47656E6572616C20434C495D203E2074
:101090000000000010B504A0FFF7CCFF0349886DE5
:1010A000FFF7C8FF10BD00000D0A0000440000203B
:1010B0002DE9F04106460D463046FFF757F88046C9
:1010C0002846FFF753F807460024474502D9601E1B
:1010D000BDE8F081002407E0305D295D884202D040
:1010E0004FF0FF30F4E7641CBC42F5D30020EFE77B
:1010F0000246114606E00878202802D04FF0FF3063
:101100007047491C08780028F5D100BFF8E70000B7
:10111000014609B9002070470848026804E08A4285
:1011200001D10020F7E71269002AF8D103480068CE
:101130000861024801600120EDE700002000002066
:1011400070B504460D46164614212046FFF703F8F5
:101150000020A071E660A560A0688047E07170BDC6
:1011600010B50548046803E0204600F007F824693C
:10117000002CF9D110BD00002000002070B50446FD
:10118000A06880470546E079A84209D0E078401C75
:10119000C0B2E070032805D3E5710020E07001E0E3
:1011A0000020E0700020A071A078052867D2DFE859
:1011B00000F0030D21495200E07930B90120A071FF
:1011C000002020800120A080A0705DE0E07930B197
:1011D0000220A071002020800220A07009E0208859
:1011E000401C80B22080C82803D90320A0710420AD
:1011F000A07049E0E07970B90120A071A0884FF695
:10120000FF71884202DAA088401CA0800020208064
:101210000320A07015E02088401C80B220803C286C
:101220000FD9A088012802D10520A07107E0A0886D
:10123000022802D10620A07101E00720A071002041
:10124000A07021E0E07928B10220A0710020208068
:101250000220A07018E0E07950B92088401C80B2CC
:10126000208014280AD9002020800420A07105E0E5
:101270000220A07100202080A080A07004E0002047
:101280002080A080A07000BF00BFA07938B100BF4F
:10129000E06818B121460120E268904700BF70BDA8
:1012A0002DE9F04105460E4600240027102001F0EC
:1012B000A5FB044614B90020BDE8F08105FB06F04B
:1012C00001F09CFB074627B9204601F0FBFB0020FC
:1012D000F2E7002020806080E5802681A080E76022
:1012E0002046E9E701460A46908870472DE9F0411B
:1012F00005460E4600272C460CB1E06810B90020C8
:10130000BDE8F08172B600BFA08808B9002717E0D9
:101310006388B4F808C0E06803FB0C0162463046FD
:10132000FEF700FFA088401EA0806088401C80B2AD
:101330006080E188884201D100206080012700BFE1
:1013400000BF62B63846DBE72DE9F04105460E46A0
:1013500000272C460CB1E06810B90020BDE8F081F0
:1013600072B600BFA088E188884201D1002717E04B
:101370002388B4F808C0E16803FB0C1062463146CC
:10138000FEF7D0FEA088401CA0802088401C80B2C0
:101390002080E188884201D100202080012700BF01
:1013A00000BF62B63846D9E701460848026804E043
:1013B0008A4201D1002070475269002AF8D10348BF
:1013C00000684861014801600120F4E73C0000200A
:1013D00002484068401C0149486070473C000020BA
:1013E0002DE9F04104460E4617461D46DDF81880EB
:1013F00014B90020BDE8F08105B101E00020F9E753
:101400002670676000206061A5606070C4F810807D
:101410002046FFF7C9FFEDE710B50648046806E06F
:101420006078012802D1204600F006F86469002C9B
:10143000F6D110BD3C00002070B504461548406848
:10144000E168451AA068A84222D8207820B1012876
:1014500005D0022814D10EE00020607011E0606811
:10146000401E606020B1D4E902100844E06001E051
:101470000020607005E0D4E902100844E06000E05C
:1014800000BF00BF206918B12146012022699047A2
:1014900070BD00003C000020014609B900207047E3
:1014A0000120487002484068C8600120F7E700004A
:1014B0003C0000202DE9F0410246002500260020D6
:1014C00000230024002791F803C00CF00F0591F8C9
:1014D00003C00CF0100CBCF1000F03D091F802C057
:1014E0004CEA050591F800C0BCF1000F31D014683A
:1014F00000202BE04FF0010C0CFA00F3B1F800C013
:101500000CEA03069E4220D183004FF00F0C0CFA28
:1015100003F7BC4305FA03FC4CEA040491F803C04A
:10152000BCF1280F06D14FF0010C0CFA00FCC2F8F8
:1015300014C00AE091F803C0BCF1480F05D14FF088
:10154000010C0CFA00FCC2F810C0401C0828D1D3D2
:101550001460B1F800C0BCF1FF0F34DD5468002006
:101560002EE000F1080C4FF0010808FA0CF3B1F876
:1015700000C00CEA03069E4221D183004FF00F0CFD
:101580000CFA03F7BC4305FA03FC4CEA040491F897
:1015900003C0BCF1280F05D100F1080C08FA0CF8C3
:1015A000C2F8148091F803C0BCF1480F07D100F1D4
:1015B000080C4FF0010808FA0CF8C2F81080401C23
:1015C0000828CED35460BDE8F08101617047000067
:1015D0007FB506460C4615460121022000F0BEF9F3
:1015E000ADF80860ADF804400020ADF80A00ADF891
:1015F000060001A90E4800F02DFB012211460C48FF
:1016000000F01EFB1D208DF8000000208DF8010069
:1016100003208DF8020001208DF80300684600F0D9
:1016200059F90121024800F0EEFA024805607FBD39
:10163000000400401C00002030B587B004460D4671
:10164000012144F2040000F099F94FF40070ADF864
:10165000180003208DF81A0018208DF81B0006A929
:101660001C48FFF727FF4FF48060ADF818000420F6
:101670008DF81B0006A91748FFF71CFF02940020F5
:10168000ADF80C00ADF80E00ADF81000ADF8140088
:101690000C20ADF8120002A90F4800F019FC25201B
:1016A0008DF8040000208DF8060001208DF8070059
:1016B00001A800F00FF9012240F22551064800F080
:1016C000E1FB0121044800F0A7FB0448056007B0D6
:1016D00030BD000000080140003801401800002023
:1016E00000BF0549098801F040010029F9D00249ED
:1016F000091D0880704700000038014000BFFEE768
:1017000070B506460D462C46A079082824D2DFE89D
:1017100000F0230408191E0C101411A000F034FB73
:101720001BE012A000F030FB17E014A000F02CFB2F
:1017300013E017A000F028FB0FE0A18819A000F02B
:1017400023FB0AE0A1881BA000F01EFB05E0A18896
:101750001DA000F019FB00E000BF00BF002070BD1D
:101760006B65792070726573730D0A006B65792063
:1017700072656C656173650D0A0000006B65792008
:1017800073696E676C6520636C69636B0D0A00009A
:101790006B657920646F75626C6520636C69636B3F
:1017A0000D0A00006B657920256420636C69636B0A
:1017B0000D0A00006B6579206C6F6E672070726592
:1017C00073730D0A000000006B6579207265706507
:1017D00061742070726573730D0A00001CB50121DD
:1017E000042000F0CBF80120ADF8040003208DF8B0
:1017F000060048208DF8070001A90B48FFF75AFEA4
:101800000A4A0B490B48FFF79BFC0A48FFF780FC8C
:10181000094805230022022100900848FFF7E0FD57
:101820000648FFF739FE1CBD0008014001170008FB
:101830004118000820060020611100080806002059
:101840000348006808B1012070470020FCE7000051
:10185000000121420348006880F001000249C1F8FC
:10186000B4017047B4012242000022421CB501219C
:10187000102000F083F84FF40050ADF8040003206E
:101880008DF8060010208DF8070001A90A48FFF71F
:1018900011FE4FF400510848FFF797FE07484FF438
:1018A000FA730022022100900548FFF799FD0448D1
:1018B000FFF7F2FD1CBD000000100140C518000834
:1018C000F003002000B5FFF7C5FF00BD00BFFEE735
:1018D0007047000070B5002100230F22C47804B3C4
:1018E000154C246804F4E064C4F5E064210AC1F1F5
:1018F0000403CA40447804FA03F184781440214375
:1019000009010E4C0678A155047804F01F05012446
:10191000AC4005786D11AD0005F1E025C5F800413A
:1019200009E0047804F01F050124AC40044D06785A
:10193000761145F8264070BD0CED00E000E400E0B3
:1019400080E100E002490143024A11607047000053
:101950000000FA050CED00E07047000029B1064ACE
:10196000D2690243044BDA6104E0034AD26982433C
:10197000014BDA61704700000010024029B1064AAD
:1019800092690243044B9A6104E0034A92698243DC
:10199000014B9A61704700000010024030B50021F1
:1019A0000022002400232D4D6D6805F00C0121B1AB
:1019B000042905D0082923D105E0294D056022E03E
:1019C000274D05601FE0254D6D6805F47012234D0D
:1019D0006D6805F48034022505EB92421CB9214D57
:1019E000554305600BE01D4D6D6805F400351DB1D4
:1019F0001C4D5543056002E0194D5543056002E05A
:101A0000174D056000BF00BF144D6D6805F0F00173
:101A10000909154D6B5C0568DD4045600F4D6D682B
:101A200005F4E061090A104D6B5C4568DD40856096
:101A30000A4D6D6805F46051C90A0B4D6B5C456831
:101A4000DD40C560054D6D6805F44041890B074DCB
:101A50006B5CC568B5FBF3F5056130BD0010024055
:101A600000127A0000093D0004000020140000204C
:101A7000704710B500F002F810BD00000CB5002052
:101A8000019000903348006840F48030314908608C
:101A900000BF3048006800F4003000900198401CFE
:101AA0000190009818B90198B0F5A06FF1D12948BC
:101AB000006800F4003010B10120009001E0002027
:101AC00000900098012843D12348006840F010009E
:101AD000214908600846006820F0030008600846B5
:101AE000006840F0020008601A48406819494860E0
:101AF0000846406848600846406840F48060486096
:101B00000846406820F47C1048600846406840F46D
:101B1000E81048600846006840F08070086000BF28
:101B20000C48006800F000700028F9D009484068AF
:101B300020F00300074948600846406840F0020072
:101B4000486000BF0348406800F00C000828F9D145
:101B50000CBD000000100240002002407047000051
:101B600010B51348006840F00100114908600846AC
:101B70004068104908400E494860084600680E4910
:101B800008400B4908600846006820F4802008607F
:101B90000846406820F4FE0048604FF41F0088604B
:101BA000FFF767FF4FF000600449086010BD0000B8
:101BB000001002400000FFF8FFFFF6FE08ED00E015
:101BC00010B50121074800F02AF848B10121054865
:101BD00000F016F80448006810B103480068804718
:101BE00010BD0000000400401C00002010B5034A96
:101BF000472140F2E730FFF7EBFC10BDD11300089E
:101C0000CA430282704721B1028842F00102028079
:101C100004E002884FF6FE731A400280704730B528
:101C20000246002000230024158A05EA0103958955
:101C300005EA010413B10CB1012000E0002030BD21
:101C40001AB183890B43838102E083898B438381AB
:101C500070470000002202881D4B98420ED01D4B99
:101C600098420BD0B0F1804F08D01B4B984205D062
:101C70001A4B984202D01A4B984204D14FF68F73F8
:101C80001A404B881A43174B984207D0164B98427C
:101C900004D04FF6FF431A40CB881A4302808B884A
:101CA00083850B8803850A4B98420BD0094B9842D9
:101CB00008D00E4B984205D00D4B984202D00D4BE8
:101CC000984201D10B7A038601238382704700007A
:101CD000002C014000340140000400400008004096
:101CE000000C004000100040001400400040014083
:101CF000004401400048014008B5694605480068B5
:101D0000FFF7F4FA012801D0202000909DF8000090
:101D100008BD00000000002010B505480068FFF76E
:101D2000E1FA002801DD012010BD0020FCE70000E1
:101D30000000002010B501218020FFF7B1FA08490A
:101D4000086008494FF4E130FFF776FC06A000F088
:101D50001BF807A000F018F807A000F015F810BD58
:101D600000000020D51D00081B5B324A0000000067
:101D70001B5B303B3048000048656C6C6F20576F30
:101D8000726C640D0A0000000FB408B503A800903F
:101D90000648009A029900F00FF9044800F00EF886
:101DA0000020009001B05DF814FB00000804002042
:101DB00010B504462046FFF793FC10BD10B504464D
:101DC00003E014F8010BFFF78BFC20780028F8D112
:101DD00010BD000001B5694602480068FFF7B4FA7B
:101DE00008BD00000000002010B540F22551084851
:101DF00000F01EF850B1064800F0D6F8C4B205480D
:101E0000006818B1204603490968884710BD0000E2
:101E1000003801401800002021B1828942F40052AC
:101E2000828104E082894DF6FF731A4082817047F7
:101E300070B50246002400230025002040F66A16F3
:101E4000B14200D100BFC1F3421501F01F030126CA
:101E500006FA03F3012D02D19689334006E0022DE4
:101E600002D1168A334001E0968A33400C120126D3
:101E700006FA04F41688344013B10CB1012000E0D6
:101E8000002070BDF0B50346002400260025002088
:101E900040F66A17B94200D100BF1846C1F3421498
:101EA00001F01F06012707FA06F5012C01D10C30BD
:101EB00004E0022C01D1103000E014301AB10768A0
:101EC0002F43076002E00768AF430760F0BD0000E2
:101ED0002DE9F04786B005460E460024A24600BF15
:101EE000A1460027B08900B100BF2F462C8A4CF6CE
:101EF000FF700440F08804432C82AC894EF6F31046
:101F00000440B08831890843718908430443AC8197
:101F1000AC8A4FF6FF400440B0890443AC8201A86C
:101F2000FFF73CFD1F48874202D1DDF810A001E019
:101F3000DDF80CA0A88900F4004040B10AEBCA000B
:101F400000EB0A1031684900B0FBF1F807E00AEB3A
:101F5000CA0000EB0A1031688900B0FBF1F8642078
:101F6000B8FBF0F004012009642101FB1089A88965
:101F700000F4004040B1322000EBC900B0FBF1F0AA
:101F800000F00700044308E0322000EB0910642150
:101F9000B0FBF1F000F00F0004432C8106B0BDE867
:101FA000F08700000038014001468888C0F308002F
:101FB000704700BFFEE7000037B514460846064BE1
:101FC0006A46214600F0DCF804466946002000F02D
:101FD0006EFC20463EBD0000AF28000802E008C8A5
:101FE000121F08C1002AFAD170477047002001E093
:101FF00001C1121F002AFBD1704700002DE9FF5FCD
:1020000082B00021DDE90430020DDDF840B0034369
:1020100018D044F61050A2F2FF3242431514119822
:1020200001281FD0A5EB0B00401C5FEA000A4FF00F
:1020300000064E4FDFF83891B046504615D5CAF12C
:10204000000413E0119801244AA3012801D16FEA8A
:102050000B010298119AC0E90031C0E9024206B0B2
:10206000BDE8F09FCBF10000DFE704460021404AC5
:10207000491842EB0450CDE9001012E0E00707D008
:1020800032463B4640464946FEF773F9804689464C
:1020900032463B4610461946FEF76BF906460F4698
:1020A0006410002CEAD1DDE90401DDE90023BAF176
:1020B000000F06DAFEF75DF942464B46FEF759F986
:1020C00005E0FEF7C8F942464B46FEF7C4F9044660
:1020D0000E460022284BFEF745FA03D84FF0FF309A
:1020E000014607E00022254B20463146FEF79AF8CC
:1020F000FEF720FA102409E0002C0ADB0A22002354
:10210000FEF75FF8039B30321A55641E50EA010255
:10211000F2D1641C039AC4F111031444119A012AE8
:1021200003D0012208430DD10AE0084304D0002067
:102130004FF0110B119072E7A3EB0B056D1E0DE034
:102140005B4504DD4FF0000205F1010504E003DA10
:102150004FF00002A5F10105002AECD00298119978
:10216000C0E90231C0E9004579E7000000001440F1
:102170000000F03F300000000000F0430000E03FAE
:102180002DE9FF4F95B09B468946064600250FE294
:10219000252877D100242746F84A0121059400E03C
:1021A000044316F8013F203B01FA03F01042F7D137
:1021B00030782A2811D06FF02F033078A0F1300248
:1021C000092A16D8059A44F0020402EB820203EBB6
:1021D00042021044761C0590EFE759F8042B059253
:1021E000002A03DA504244F40054059044F00204FB
:1021F000761C30782E2816D116F8010F44F004040E
:102200002A280DD06FF02F023078A0F13003092B6F
:1022100009D807EB870302EB4303C718761CF3E7E3
:1022200059F8047B761C30786C280FD006DC4C28DB
:1022300017D068280DD06A2814D104E0742810D073
:102240007A280FD10DE044F400140AE044F480141D
:1022500001E044F440147278824202D104F5801403
:10226000761C761C307866280BD013DC582877D083
:1022700009DC002875D04528F6D04628F4D0472838
:102280001AD19DE118E0632835D0642879D06528FB
:1022900012D195E1702873D008DC6728F1D0692845
:1022A0006FD06E280DD06F2806D1B5E073282CD0E2
:1022B000752875D0782874D05A46179990476D1CA8
:1022C00075E1C4F30250022809D003280DD0D9F8D3
:1022D000001004280DD00D6009F1040967E1D9F858
:1022E0000010EA17C1E90052F6E7D9F800100D8096
:1022F000F2E70D70F0E719F8041B8DF800100020CC
:102300008DF80100EA46012003E059F804AB4FF0D4
:10231000FF3061074FF0000102D40DE008F1010128
:102320008846B9420FDA8045F8DB1AF80810002910
:10233000F4D108E008F1010188468142FADB1AF87D
:1023400008100029F6D105985B46A0EB0807214646
:102350003846179A00F094FA284400EB080507E085
:102360004DE029E10DE01AF8010B5A461799904704
:10237000B8F10108F7D25B4621463846179A13E1B7
:1023800042E00A220092C4F302524FF0000A022AED
:1023900008D059F804CB032A4FEAEC710AD00DE0BB
:1023A00029E02AE009F1070121F00702F2E802C161
:1023B000914609E00FFA8CFC4FEAEC71042A03D134
:1023C0004FFA8CFC4FEAEC71002907DA0A4600212B
:1023D000DCF1000C61EB02012D2202E0220504D5A4
:1023E0002B228DF80420012203E0E20701D02022F5
:1023F000F7E7904659E00A2102E010220DE0102193
:102400004FF0000A00910BE010224FF0000A44F058
:1024100004040827009203E008224FF0000A00920B
:10242000C4F30252022A05D059F804CB0021032A32
:1024300008D009E009F1070121F00702F2E802C122
:10244000914605E01FFA8CFC042A01D10CF0FF0C28
:102450004FF00008220728D5702806D0009B83F093
:10246000100353EA0A0305D00EE040228DF8042041
:10247000012208E05CEA010206D030228DF8042037
:102480008DF8050002229046009B83F0080353EA72
:102490000A030AD15CEA010201D1620705D53022A4
:1024A0008DF804204FF001087F1E582804D034A076
:1024B00003900EA802900DE036A0F9E7534660465F
:1024C000009AFDF77EFE84460398825C0298401EC7
:1024D000029002705CEA0100F0D1029806A9081A85
:1024E00000F1200A600702D524F4803400E00127BF
:1024F000574502DDA7EB0A0000E0002000EB0A01CF
:10250000009005984144401A0590E00306D45B46CC
:102510002146179A059800F0B3F90544002706E014
:1025200001A85A46C05D179990476D1C7F1C47450E
:10253000F6DBE0030CD55B462146179A059800F0C0
:102540009FF9054404E030205A46179990476D1CC6
:102550000099481E00900029F5DC08E002980299D5
:102560005A460078491C0291179990476D1CBAF1A0
:102570000001AAF1010AF1DC65E10000092801006F
:1025800030313233343536373839616263646566E9
:1025900000000000303132333435363738394142AB
:1025A000434445460000000000F058F90544761CFD
:1025B000307800287FF4ECAD19B02846BDE8F08FE4
:1025C000620700D4062709F1070222F0070CFCE895
:1025D0000223E14603F000485FEA080C02D00FF244
:1025E000702C0DE05FEA045C02D50FF2682C07E066
:1025F0005FEAC47C02D00FF2602C01E0AFF2700CF5
:102600004FF0FF3823F00043CDF850C065280CD0C0
:1026100006DC452809D046281DD047283DD13DE09D
:10262000662818D067287ED138E00021112F01DB01
:10263000112000E0781CCDE9000106A90EA8FFF7E3
:10264000DDFCDDE90F010E9A03910021009207F1F4
:10265000010A04914DE04FF000400097CDE90110D0
:1026600006A90EA8FFF7CAFCDDE90F0203920E9B34
:1026700011990022DDF80CA00093049211B9791C85
:1026800000EB010AB7EB0A0004D4C0F1FF3007F1F8
:10269000010A0490AAEB0700019044E0012F00DA40
:1026A00001270021112F01DD112000E03846CDE97E
:1026B000000106A90EA8FFF7A1FCDDE90F010E9AA3
:1026C0000391002104910092BA4621070CD403998A
:1026D000514500DA8A46BAF1010F05DD009AAAF1E8
:1026E0000101515C302908D0B84202DA10F1040F20
:1026F00006DA0121CDE9011015E0AAF10101E9E7AF
:10270000002805DC049901440491AAEB000102E0D1
:10271000411C514500DD8A460499401A401C019035
:102720004FF000400290200704D40198504501DB8F
:10273000CDF8048000208DF84F0002980DF14F076E
:10274000B0F1004F25D02B200E9002984FF00208D8
:1027500000280CDA404202902D200E9007E00A215A
:102760000298FDF718FD3031029007F8011DB8F10D
:102770000001A8F10108F2DC02980028EFD1791ECF
:102780000E980870307800F0200040F0450007F8FF
:10279000020D12A8C01B00F107081498007800B1C0
:1027A000012000EB0A01019801EBE071059841441A
:1027B000401A401E0590E00306D45B462146179A56
:1027C000059800F05DF805441498007818B15A4651
:1027D000179990476D1CE00324D55B462146179A54
:1027E000059800F04DF805441CE00498002807DB2C
:1027F000DDE90301884203DD0098405C179901E0A0
:10280000179930205A469047049805F10105401C5D
:1028100004900198401E019004D12E205A46179929
:1028200090476D1CBAF10001AAF1010ADDDC05E058
:1028300017F8010B5A46179990476D1CB8F1000123
:10284000A8F10108F4DC5B462146179A0598ABE62F
:102850002D0000002B000000200000002DE9F041B9
:10286000044600251E461746880404D405E0394670
:102870002020B0476D1C641EF9D52846BDE8F081C4
:102880002DE9F041044600251E469046C80301D5B7
:10289000302700E02027880404D505E0414638466B
:1028A000B0476D1C641EF9D52846BDE8F0810A6862
:1028B000531C0B60107070474FF4A060FFF742F894
:1028C000FFF794F9FFF736FAFEF7D0FFFEF786FF21
:1028D000FEF712F80A48FEF7C3FB0AA0FEF7C6FB94
:1028E000FEF7D8FB00BFFFF717FA012804D1FFF766
:1028F00003FA0446FEF734F8FEF78EFDF3E7000016
:10290000B11D00085B53544D3332463130334338E8
:1029100054365D203E20000030B54FF40053174878
:1029200000F007042CB1C01D20F00700134C041B5D
:102930001B1B0246124C22600024114D6C60D01803
:10294000083820F007000F4C206000240D4D2D6842
:102950006C600C4D2D682C601146441A4C60094C7B
:1029600024680C60084D4C682C60084D4C682C6045
:102970004FF00044064D2C6030BD000034060020AE
:10298000240000202C000020340000203000002013
:102990003800002010B50146164800E000680368C2
:1029A0008B42FBD30246436813448B4204D14368F5
:1029B0004C682344436001460A464B68134404684C
:1029C000A34211D10C4C03682468A34208D04B6881
:1029D0000468646823444B6003681B680B6005E06F
:1029E000054B1B680B6001E003680B60884200D058
:1029F000016010BD240000202C0000202DE9F041D2
:102A000005464FF000082A48006808B9FFF784FF20
:102A1000284800682840002847D145B1083505F00E
:102A2000070020B105F00700C0F108000544002DA3
:102A30003BD021480068854237D8204E3046046894
:102A400001E0264624686068A84202D22068002877
:102A5000F7D117480068844227D0306800F1080891
:102A6000206830606068401B102807D967196068CB
:102A7000401B786065603846FFF78CFF0E49606840
:102A80000968081A0C490860084600680C4909687A
:102A9000884203D20848006809490860054960680F
:102AA000096808436060002020604046BDE8F0816E
:102AB0002C000020380000203000002024000020DE
:102AC0003400002070B506463546B6B1083D2C46A8
:102AD0000A4960680968084078B1206868B9074900
:102AE000606809688843606005496068096808444F
:102AF000034908602046FFF74DFF70BD38000020F5
:102B0000300000205B47656E6572616C20434C4964
:102B10005D203E200000000068656C700000000031
:102B200068656C70205B636D645D202D2D206C6981
:102B300073742074686520636F6D6D616E642061CD
:102B40006E642075736167650000000074657374BE
:102B50000000000074657374205B617267735D2010
:102B60002D2D20746573742074686520636C690072
:102B7000A82B000800000020F0030000D406000885
:102B8000C82B0008F003002048260000EC1F0008B6
:102B9000182B0008202B0008150700084C2B0008F4
:102BA000542B00084108000891001185010203041C
:102BB00001020304060708090204060805FF042BA6
:082BC000000801FF01FF0157AD
:04000005080000ED02
:00000001FF
